S00F000053656D61666F726F2E6F626A4B
S123C0004FC718024504B0946EAA4A6E06480D4BFD6E1C03A603C718443FB06E06B16E050C
S123C020B56E04B36E01B26E02B4140216021802CDC130150217021902CDC08CB602A40314
S123C0404100F64103F3410210B602A403410303CCC0496E01B0CCC039B602A40341030316
S123C060CCC059B6B14106126E06B16E05B56E04B36E01B26E02B4CCC0396E04B16E04B551
S123C0806E06B36E01B26E03B4CCC039B6B04101251402B6B1CDC1301502B6B2CDC142B65D
S123C0A0B31802CDC130190214021602B6B4CDC13015021702813FB64F17021402B602A400
S123C0C00341014A4103F64100F3B602A403410303CCC0CAB6B6AB01B7B641010941031C33
S123C0E0410425CCC0B61502CDC142B6B04100281802B602A4034103C4CCC0F219021402AA
S123C10016026E03B6CCC0BD6E00B6CCC0B6B602A403410303CCC10E3FB06E06B16E05B5B0
S123C1206E04B36E01B26E02B415021702190281AE144245C350AFFF65000026F94BF4A652
S123C1400181B6B587B6B0410113A6011602CDC1301702CDC1303BB5F386B7B58186A601D5
S123C1601602CDC1301702CDC130B602A4034100ED4103EA410114B602A40341030915023A
S11CC18017021902CCC1776E02B681B602A403410303CCC18B6E00B08166
S105FFFEC0003D
S9030000FC
