S00F000053656D61666F726F2E6F626A4B
S123C0004FC718024504B0946EAA4A6E06480D4BFD6E1C03A603C718443FB06E06B16E050C
S123C020B56E04B36E01B26E02B4CDC07DB602A4034100F64103F3410210B602A403410310
S123C04003CCC03A6E01B0CCC02AB602A403410303CCC04AB6B14106126E06B16E05B56E47
S123C06004B36E01B26E02B4CCC02A6E04B16E04B56E06B36E01B26E03B4CCC02AB6B041F6
S123C08001251402B6B1CDC1311502B6B2CDC143B6B31802CDC131190214021602B6B4CD28
S123C0A0C13115021702813FB64F160217021902B602A4034101584102394103034100F05C
S123C0C0B6B641000941010F41021A41031C170219021402CCC0B015021602B6B2CDC131BC
S123C0E01702CCC0B01802CCC0B0190214021602CCC0B0B602A403410303CCC0F3B6B6413A
S123C1000407AB01B7B6CCC0B06E00B6CCC0B0B602A403410303CCC10F3FB06E06B16E0592
S123C120B56E04B36E01B26E02B415021702190281AE144245C350AFFF65000026F94BF443
S123C140A60181B6B587B6B0410113A6011602CDC1311702CDC1313BB5F386B7B581A601B3
S123C1601602CDC1311702CDC131B602A4034100ED4103EA410111B602A403410303CCC1CB
S119C18077A601BBB6B7B681B602A403410303CCC1886E00B081CE
S105FFFEC0003D
S9030000FC
